:100000000201D832000000000000003200000000B1
:10001000000000320000000000000032000000007C
:10002000000000320000000000000032000000006C
:1000300000000000000000000000000000000000C0
:10004000000000320000000000000032000000004C
:10005000000000320000000000000032000000003C
:10006000000000320000000000000032000000002C
:10007000000000000000000000000032000000004E
:10008000000000000000000000000032000000003E
:10009000000000320000000000000000000000002E
:1000A0000000003200000000000000320000C39594
:1000B000F0221200AE60044002E42274012213DA3E
:1000C000FD22D3E433DAFDFAF4FB22AE02E6F708B0
:1000D00009DEFA22740D1200DF740A1200DF2230EA
:1000E00099FDC299F59922AE02760008DEFB2278CE
:1000F0000C11E7200111C2D574082A14F8E630E784
:1001000006B2D57808316A20010F74102A14F8E677
:1001100030E706B2D57810316A7810790875F008A2
:10012000EAA4FBE626F6C0D0BA0104D0D0800BD0FA
:10013000D0AE021E08E633F6DEFA780CAE02E633E5
:10014000F608DEFAAE02780CE6970908DEFA1978AE
:100150001040127908C3780CAE02E697F60908DE63
:10016000F9781019067908DBBA22AE02D3E6F43426
:1001700000F608DEF822C001791011CBD001C001D1
:1001800074102A14F8E6C0E0780811E77808760AB7
:10019000E9240FF9E4F719C00111EF780CD001E65A
:1001A0002430F77810AE02E44608DEFC70E8D0E0B8
:1001B00020010730E704742D19F7A801D0017A1047
:1001C00031C322E6F760040809DAF8E4F722E660B2
:1001D000061200DF0880F72278FFE4F6D8FD75816B
:1001E0003DC28E759852758922438780758DF8D2ED
:1001F0008E75200075330075380075390075360826
:10020000753708753A00753B00753C0075800075C0
:10021000900075A00075B00075E80075F80075DBFA
:100220000075F0C085B0E055F0C0E07834D0E0F65D
:1002300075F03F85E8E055F0C0E07832D0E0F6C2D6
:10024000FF53DB7FE532B53302800250030206AD77
:100250008533F0E532C395F0F58075380075F0050B
:10026000E53811B27003020284AA380AE580120050
:10027000BE9204400302027B8538350538E53860BC
:100280000302025DE534B4C00280030203DB780B95
:10029000E88360061200DF0880F60202B64F64624F
:1002A00031206F72617A204F6462322073B9207AF4
:1002B000616A6574650011D4E53AB40002800302F6
:1002C000032375F001E53525F0C0E0783AD0E0F67B
:1002D000780BE88360061200DF0880F60202E54131
:1002E00062206E720078357A017921D2013176C2AE
:1002F00001782131CE780BE88360061200DF088098
:10030000F602031E207A6F7374616C20646F64615F
:100310006E7920646F206B6F6C656A6B690011D415
:100320000203DBE53BB40002800302038E75F0019B
:10033000E53525F0C0E0783BD0E0F6780BE8836047
:10034000061200DF0880F60203504162206E720040
:1003500078357A017921D2013176C201782131CE06
:10036000780BE88360061200DF0880F6020389201C
:100370007A6F7374616C20646F64616E7920646F4E
:10038000206B6F6C656A6B690011D40203DBAA35C0
:100390000A1200C2EB52E8780BE88360061200DF15
:1003A0000880F60203CA4B6F6C656A6B612070654A
:1003B0006C6E612C20706F6C61637A656E6965206C
:1003C0006F64727A75636F6E650011D48580F0E595
:1003D00032C395F0C0E07832D0E0F6E534B4800264
:1003E00080030204C0780BE88360061200DF0880F7
:1003F000F60203FA4162206E720078357A017921A3
:10040000D2013176C201782131CE780BE8836006C3
:100410001200DF0880F602042E206E617769617A8F
:10042000616C20706F6C61637A656E69650011D4D0
:10043000780BE88360061200DF0880F60204544F50
:10044000646231206F62736C7567756A65206162E2
:10045000206E720078357A017921D2013176C2019D
:10046000782131CE11D485353675F010E535A4F5F7
:10047000F875F00185F8E025F0F5F8D2FFC2FF75B8
:10048000DB6075F00185DBE025F0F5DB43DB8053B5
:10049000DB7F75F86075F00285F8E025F0F5F8D29D
:1004A000FFC2FF75F010E535A4F5DB75F00285DBC2
:1004B000E025F0F5DB43DB8053DB7FD2B6753902F4
:1004C000E534B4400280030205A5780BE88360069A
:1004D0001200DF0880F60204DF4162206E720078AD
:1004E000357A017921D2013176C201782131CE7875
:1004F0000BE88360061200DF0880F6020513206E09
:10050000617769617A616C20706F6C61637A656E86
:1005100069650011D4780BE88360061200DF08805B
:10052000F60205394F646232206F62736C7567752D
:100530006A65206162206E720078357A017921D275
:10054000013176C201782131CE11D485353775F06D
:1005500010E535A4F5F875F00485F8E025F0F5F818
:10056000D2FFC2FF75DB7075F00485DBE025F0F586
:10057000DB43DB8053DB7F75F87075F00885F8E0AE
:1005800025F0F5F8D2FFC2FF75F010E535A4F5DBD4
:1005900075F00885DBE025F0F5DB43DB8053DB7F7E
:1005A000D2B7753902E534B4000280030206AD7893
:1005B0000BE88360061200DF0880F60205D04F6268
:1005C00061206F646220736120776F6C6E652E000E
:1005D00011D4780BE88360061200DF0880F602056C
:1005E000E74162206E720078357A017921D20131BB
:1005F00076C201782131CE780BE88360061200DFE5
:100600000880F602061B206E617769617A616C20B2
:10061000706F6C61637A656E69650011D4780BE860
:100620008360061200DF0880F60206414F646231E3
:10063000206F62736C7567756A65206162206E72E7
:100640000078357A017921D2013176C201782131E1
:10065000CE11D485353675F010E535A4F5F875F072
:100660000185F8E025F0F5F8D2FFC2FF75DB607573
:10067000F00185DBE025F0F5DB43DB8053DB7F75A4
:10068000F86075F00285F8E025F0F5F8D2FFC2FFBA
:1006900075F010E535A4F5DB75F00285DBE025F09B
:1006A000F5DB43DB8053DB7FD2B6753902E532B52B
:1006B00033028002400302088E8532F0E533C39591
:1006C000F0F58075380075F005E53811B270030259
:1006D00006EDAA380AE5801200BE92044003020625
:1006E000E48538350538E53860030206C675F00143
:1006F000E53525F0C0E0783CD0E0F6780BE8836083
:10070000061200DF0880F60207104162206E7200B8
:1007100078357A017921D2013176C201782131CE42
:10072000780BE88360061200DF0880F602073E209F
:10073000726F7A6C61637A796C207369650011D489
:10074000E536B5350280030207D7780BE8836006EB
:100750001200DF0880F60207644F64623120776F71
:100760006C6E790011D475F010E535A4F5F8D2FF60
:1007700075DB60C2FF43DB8053DB7FC2B675360892
:10078000E539B40202800302079075390102079D22
:10079000E539B40102800302079D753900E53AB4DA
:1007A0000002800250030207C475F001E53AC395C8
:1007B000F0C0E07835D0E0F6853B3A753B008532F5
:1007C000330203E575DB0075F800D2FFC2FF43DB9F
:1007D0008053DB7F02088EE537B5350280030208BF
:1007E0006E780BE88360061200DF0880F60207FBD4
:1007F0004F64623220776F6C6E790011D475F010FF
:10080000E535A4F5DBD2FF75DB70C2FF43DB805317
:10081000DB7FC2B7753708E539B4020280030208EE
:1008200027753901020834E539B401028003020852
:1008300034753900E53AB400028002500302085BC7
:1008400075F001E53AC395F0C0E07835D0E0F68563
:100850003B3A753B008532330204CA75DB0075F8FC
:1008600000D2FFC2FF43DB8053DB7F02088EE53AF4
:10087000B53C028003020881853B3A753B000208C3
:100880008EE53BB53C02800302088E753B00853245
:1008900033759000758000020221220000000000E4
:00000001FF
